:100E7A004F4B0D0A004552524F520D0A004D4F4436
:100E8A0020310053544F50004D4F442032007469B2
:0D0E9A006D656F7574006E3A0020007300E6
:100E3F00013E00012B00012D0001270101370101A7
:100E4F002F01012801013801013001012901013968
:100E5F0001013101012A01013A01013201033BFF76
:0A0E6F000E7A0324FF0E7F01350008
:03001B00020B30A5
:100B3000C0E0C0D075D000C006C007758B48758D69
:100B4000480534E53470020533FFAE33BE120EBFE4
:100B50002A0B052B752C01753300753400A280E437
:100B600033F527B5370C052DE52DB4050885272F5E
:100B70008000752D00852737A281E433F528B5382C
:100B80000C052DE52DB405088528308000752D0055
:100B9000852838A282E433F529B5390C052DE52DD9
:100BA000B405088529318000752D00852939A28377
:100BB000E433F52AB53A0C052DE52DB40508852A50
:100BC000328000752D00852A3AD007D006D0D0D0CB
:020BD000E03211
:040BD200AB07AA06BD
:100BD600900000E4F558F559F55AF55BEB4A603696
:100BE6007C007D0AAF03AE021209F58C568D577C48
:100BF600007D0AAF03AE021209F5AA06AB07E55758
:100C06002430FFAE8274642EF8A6070559E55970A4
:100C1600020558A380C674642559F8E4F685585A27
:100C260085595BE55924FFFFE55834FFFEE4F5835B
:100C3600F582C3E582955BE583955A501674642F59
:100C4600F8E6FDAC82745C2CF8A605A3EF1F70E2F3
:0F0C56001E80DF745C255BF8E4F6FB7A00795CA6
:010C6500226C
:100A8000E53F64287030E5406453702AE541B45472
:100A900025E542B44120E543B4521BE544B4541665
:100AA000E545B42911752E01853B21853C22853D04
:100AB00023E4F5368069E53F64287029E540B453A6
:100AC00024E541B4541FE542B44F1AE543B4501530
:100AD000E545B42910E4F52E853B21853C22853D72
:100AE00023F5A0803AE53F6428702BE540644E7002
:100AF00025E541643A701FE543B4291AE54224D044
:100B0000F53EC39400400FE5366014853B21853CDB
:100B100022853D238009852421852522852623AB36
:100B200021AA22A9231209AFF599E4F53FF5352250
:03002300020CF2DA
:100CF200C0E0C0F0C083C082C0D075D000C000C0C8
:100D020001C002C003C004C005C006C0073098334A
:100D1200C29885994BE54BB42803753500743F257D
:100D220035F8A64BAF35EF3395E0FEEF2401FFE433
:100D32003EFE7C007D0C1209F58D35E54BB429038E
:030D4200120A8012
:100D4500309919C29974012523F523E43522F5223A
:100D5500AB21FAA9231209AF6002F599D007D00695
:100D6500D005D004D003D002D001D000D0D0D0829D
:070D7500D083D0F0D0E03282
:10080000E4F54CF54D754E01754F0175500175516C
:1008100001755201755301755401755501120D7C16
:10082000E4F52EF536F5A0758B48758D4875892051
:10083000D28ED2AB538780759AFD759850439B1C1E
:10084000D2ACD2AFF52CF533F534852F4EE54ED32F
:10085000954F4039632EFFE52E6021E4F533F534E2
:10086000758B48758D48F536F54CF54DF52B120F07
:100870005F7BFF7A0E7987120EEE8011120F5F7B7D
:10088000FF7A0E798D120EEEE4F536F5A085305024
:10089000E550D395514027E4F5A06336FFF54CF5BC
:1008A0004DF52BE536600B120F5F7BFF7A0E7992C8
:1008B0008009120F5F7BFF7A0E7987120EEE853169
:1008C00052853254E52E70030209A0E536046075A6
:1008D00014600302099DE52C70030209A075A0FFB6
:1008E000E552D395534002054CE554D3955550033A
:1008F0000209A0120F5F7BFF7A0E7987120EEE12AB
:100900000ECBE52BD3943C7BFF40067A0E79988082
:100910002A7A0E79A0120EEEAF4C7E00120BD21284
:100920000EEE7BFF7A0E79A3120EEEAF2B7E001235
:100930000BD2120EEE7BFF7A0E79A5120EEEE4F5C5
:100940002BF54C805BE52C6057E53E6050E552D3BB
:1009500095534002054DE54D653E703CF5A0120FE4
:100960005F7BFF7A0E7992120EEE120ECBE52BD33F
:10097000943C40087BFF7A0E79988010AF2B7E0064
:10098000120BD2120EEE7BFF7A0E79A5120EEEE458
:10099000F52BF54DF53E800875A0FF8003E4F5A02A
:0F09A000854E4F85505185525385545502084A54
:070F74007590E075B0F92251
:100F1100E58954F04401F589E4FF758CEEE4F58A26
:0B0F2100D28C308DFDC28D0FBFC8EFD9
:010F2C0022A2
:080F4900C291C292C293C2B230
:0E0F5100758CFF758AD2D28C308DFDC28D2238
:0E0F2D00C2B3D2B2C290C291C292D293C2B2EB
:0E0F3B00758CF8758ACDD28C308DFDC28D225A
:100D7C00120F74120F11C2B3D2B2C290120F49C229
:100D8C00B3D2B2C290C291D292C293C2B200C2B3D9
:100D9C00D2B2D290120F49C2B3D2B2C290C291C297
:100DAC0092C293C2B200C2B3D2B2D290D291D292BA
:100DBC00D293C2B2120F51C2B3D2B2C290C291C27C
:100DCC0092C293C2B200120F2D120F3BC2B3D2B219
:100DDC00C290C291C292C293C2B200C2B3D2B2C28A
:0E0DEC0090D291D292120F4D120F3BD2942250
:100F5F00C2B3D2B2C290C291C292C293C2B20012B5
:050F6F000F2D020F3BF5
:100ECB00C2B3D2B2D290D291C292C293C2B200C27A
:100EDB00B3D2B2C290C291C292C293C2B2120F3BB2
:030EEB00020F3BB8
:050EA7009290AF041D54
:100EAC007401A805088002C333D8FC5FFFAE05A807
:0E0EBC0006088002C313D8FC24FF9200A20097
:010ECA002205
:100DFA00AC07D2B3D2B27D07120EAC120EA79291F3
:100E0A00AF041D120EAC9292AF041D120EAC929357
:100E1A00C2B200D2B2AF041D120EAC120EA792914A
:100E2A00AF041D120EAC9292AF041D120EAC929337
:050E3A00C2B2020F51DD
:060EEE008B568A5789585B
:100EF400E4F559AB56AA57A958855982758300124F
:0C0F040009C8FF6007120DFA055980E7CC
:010F100022BE
:03000000020C6689
:0C0C6600787FE4F6D8FD75816B020CADC0
:1009AF00BB010689828A83E0225002E722BBFE0246
:0909BF00E32289828A83E4932279
:1009C800BB010CE58229F582E5833AF583E02250E4
:1009D80006E92582F8E622BBFE06E92582F8E2222E
:0D09E800E58229F582E5833AF583E4932248
:1009F500C2D5EC30E709B2D5E4C39DFDE49CFCEE1D
:100A050030E715B2D5E4C39FFFE49EFE120A2BC35F
:100A1500E49DFDE49CFC8003120A2B30D507C3E45A
:060A25009FFFE49EFE228B
:100C7200020800E493A3F8E493A34003F68001F290
:100C820008DFF48029E493A3F85407240CC8C33383
:100C9200C4540F4420C8834004F456800146F6DF52
:100CA200E4800B0102040810204080900E3FE47E95
:100CB200019360BCA3FF543F30E509541FFEE49347
:100CC200A360010ECF54C025E060A840B8E493A30E
:100CD200FAE493A3F8E493A3C8C582C8CAC583CA39
:100CE200F0A3C8C582C8CAC583CADFE9DEE780BEF1
:010E79000078
:100A2B00BC000BBE0029EF8DF084FFADF022E4CCAF
:100A3B00F875F008EF2FFFEE33FEEC33FCEE9DEC78
:100A4B00984005FCEE9DFE0FD5F0E9E4CEFD22EDBE
:100A5B00F8F5F0EE8420D21CFEADF075F008EF2F08
:100A6B00FFED33FD4007985006D5F0F222C398FDF9
:050A7B000FD5F0EA2296
:00000001FF
